{
  "contractName": "Marketplace",
  "abi": [
    {
      "constant": true,
      "inputs": [
        {
          "name": "",
          "type": "address"
        }
      ],
      "name": "hasStore",
      "outputs": [
        {
          "name": "",
          "type": "bool"
        }
      ],
      "payable": false,
      "stateMutability": "view",
      "type": "function",
      "signature": "0x8d1559fe"
    },
    {
      "constant": true,
      "inputs": [],
      "name": "owner",
      "outputs": [
        {
          "name": "",
          "type": "address"
        }
      ],
      "payable": false,
      "stateMutability": "view",
      "type": "function",
      "signature": "0x8da5cb5b"
    },
    {
      "constant": true,
      "inputs": [
        {
          "name": "",
          "type": "uint256"
        }
      ],
      "name": "stores",
      "outputs": [
        {
          "name": "storeOwner",
          "type": "address"
        },
        {
          "name": "storeId",
          "type": "string"
        },
        {
          "name": "storeBalance",
          "type": "uint256"
        },
        {
          "name": "storeProductCount",
          "type": "uint256"
        }
      ],
      "payable": false,
      "stateMutability": "view",
      "type": "function",
      "signature": "0xe8a59cd8"
    },
    {
      "anonymous": false,
      "inputs": [
        {
          "indexed": false,
          "name": "ownerAddress",
          "type": "address"
        },
        {
          "indexed": false,
          "name": "storeId",
          "type": "string"
        },
        {
          "indexed": false,
          "name": "storeCount",
          "type": "uint256"
        },
        {
          "indexed": false,
          "name": "activeStore",
          "type": "bool"
        }
      ],
      "name": "LogNewStore",
      "type": "event",
      "signature": "0xb1baa39a147f604adc46ce5920281716dbcd5f168a49f654a1db2445e0335ffa"
    },
    {
      "anonymous": false,
      "inputs": [
        {
          "indexed": false,
          "name": "userAddress",
          "type": "address"
        },
        {
          "indexed": false,
          "name": "hasStore",
          "type": "bool"
        }
      ],
      "name": "LogHasStore",
      "type": "event",
      "signature": "0x6516fef0bd1c9a6719ce74e3b93aaee88d5dc4c32ad018a3016a441d68bb7290"
    },
    {
      "anonymous": false,
      "inputs": [
        {
          "indexed": false,
          "name": "accountAddress",
          "type": "address"
        }
      ],
      "name": "LogAddAdmin",
      "type": "event",
      "signature": "0x6b752a74438d47bfe20cac17baf37ecb035071c961f1f9fc463d4f4baf78ce6a"
    },
    {
      "anonymous": false,
      "inputs": [
        {
          "indexed": false,
          "name": "accountAddress",
          "type": "address"
        }
      ],
      "name": "LogRemoveAdmin",
      "type": "event",
      "signature": "0x78693bd77b9425cf4363f929f93dd7d744f9d7474b3de94b2895020cf56f4a01"
    },
    {
      "anonymous": false,
      "inputs": [
        {
          "indexed": false,
          "name": "productTitle",
          "type": "string"
        },
        {
          "indexed": false,
          "name": "productPrice",
          "type": "uint256"
        },
        {
          "indexed": false,
          "name": "productStock",
          "type": "uint256"
        },
        {
          "indexed": false,
          "name": "sku",
          "type": "uint256"
        },
        {
          "indexed": false,
          "name": "activeProduct",
          "type": "bool"
        }
      ],
      "name": "LogListProduct",
      "type": "event",
      "signature": "0xcb690fedd4eb25c4f68a52e6ce9e79774855f45f30dc5de66dd63a57ce1835a3"
    },
    {
      "anonymous": false,
      "inputs": [
        {
          "indexed": false,
          "name": "productTitle",
          "type": "string"
        },
        {
          "indexed": false,
          "name": "productPrice",
          "type": "uint256"
        },
        {
          "indexed": false,
          "name": "productStock",
          "type": "uint256"
        },
        {
          "indexed": false,
          "name": "sku",
          "type": "uint256"
        },
        {
          "indexed": false,
          "name": "activeProduct",
          "type": "bool"
        }
      ],
      "name": "LogRemoveProduct",
      "type": "event",
      "signature": "0x2bfe5247d8585897dc9508e30d3413fd247e832051bdad819e6f217ce500f8ad"
    },
    {
      "anonymous": false,
      "inputs": [
        {
          "indexed": false,
          "name": "productTitle",
          "type": "string"
        },
        {
          "indexed": false,
          "name": "productPrice",
          "type": "uint256"
        },
        {
          "indexed": false,
          "name": "productStock",
          "type": "uint256"
        },
        {
          "indexed": false,
          "name": "sku",
          "type": "uint256"
        },
        {
          "indexed": false,
          "name": "activeProduct",
          "type": "bool"
        }
      ],
      "name": "LogUpdateStock",
      "type": "event",
      "signature": "0x63295e30916202b5f12edf40e7ecdbc7cfa45350a8d3a0bbcce78aeac9af50f4"
    },
    {
      "anonymous": false,
      "inputs": [
        {
          "indexed": false,
          "name": "accountAddress",
          "type": "address"
        },
        {
          "indexed": false,
          "name": "withdrawAmount",
          "type": "uint256"
        },
        {
          "indexed": false,
          "name": "newStoreBalance",
          "type": "uint256"
        }
      ],
      "name": "LogStoreWithdraw",
      "type": "event",
      "signature": "0xbc2a6f02b6006fb5ed5b07d288be269351184f5f6b0d9004047e825b740d321b"
    },
    {
      "anonymous": false,
      "inputs": [],
      "name": "LogStorePurchase",
      "type": "event",
      "signature": "0x20be3995f64b38350fb9f84e7bc7c678f38323275385d42a37cbb36d6f20ac33"
    },
    {
      "constant": false,
      "inputs": [],
      "name": "toggleContractActive",
      "outputs": [],
      "payable": false,
      "stateMutability": "nonpayable",
      "type": "function",
      "signature": "0x1385d24c"
    },
    {
      "constant": false,
      "inputs": [
        {
          "name": "_storeId",
          "type": "string"
        }
      ],
      "name": "newStore",
      "outputs": [
        {
          "name": "",
          "type": "bool"
        }
      ],
      "payable": false,
      "stateMutability": "nonpayable",
      "type": "function",
      "signature": "0xe95797d0"
    },
    {
      "constant": false,
      "inputs": [],
      "name": "setHasStore",
      "outputs": [
        {
          "name": "",
          "type": "bool"
        }
      ],
      "payable": false,
      "stateMutability": "nonpayable",
      "type": "function",
      "signature": "0x313a5272"
    },
    {
      "constant": false,
      "inputs": [],
      "name": "addAdmin",
      "outputs": [],
      "payable": false,
      "stateMutability": "nonpayable",
      "type": "function",
      "signature": "0x6d5aaf80"
    },
    {
      "constant": false,
      "inputs": [],
      "name": "removeAdmin",
      "outputs": [],
      "payable": false,
      "stateMutability": "nonpayable",
      "type": "function",
      "signature": "0x9a202d47"
    },
    {
      "constant": false,
      "inputs": [
        {
          "name": "productTitle",
          "type": "string"
        },
        {
          "name": "productPrice",
          "type": "uint256"
        },
        {
          "name": "productStock",
          "type": "uint256"
        },
        {
          "name": "sku",
          "type": "uint256"
        }
      ],
      "name": "listProduct",
      "outputs": [],
      "payable": false,
      "stateMutability": "nonpayable",
      "type": "function",
      "signature": "0x9cde2def"
    },
    {
      "constant": false,
      "inputs": [],
      "name": "removeProduct",
      "outputs": [],
      "payable": false,
      "stateMutability": "nonpayable",
      "type": "function",
      "signature": "0x0177b556"
    },
    {
      "constant": false,
      "inputs": [],
      "name": "updateStock",
      "outputs": [],
      "payable": false,
      "stateMutability": "nonpayable",
      "type": "function",
      "signature": "0x05270871"
    },
    {
      "constant": false,
      "inputs": [
        {
          "name": "withdrawAmount",
          "type": "uint256"
        },
        {
          "name": "storeId",
          "type": "string"
        }
      ],
      "name": "storeWithdraw",
      "outputs": [
        {
          "name": "",
          "type": "uint256"
        }
      ],
      "payable": false,
      "stateMutability": "nonpayable",
      "type": "function",
      "signature": "0xd6e18926"
    },
    {
      "constant": false,
      "inputs": [],
      "name": "storePurchase",
      "outputs": [],
      "payable": false,
      "stateMutability": "nonpayable",
      "type": "function",
      "signature": "0xf92c5a42"
    }
  ],
  "bytecode": "0x608060405260008060146101000a81548160ff021916908315150217905550600060035534801561002f57600080fd5b506110158061003f6000396000f3fe6080604052600436106100c5576000357c0100000000000000000000000000000000000000000000000000000000900463ffffffff1680630177b556146100ca57806305270871146100e15780631385d24c146100f8578063313a52721461010f5780636d5aaf801461013e5780638d1559fe146101555780638da5cb5b146101be5780639a202d47146102155780639cde2def1461022c578063d6e1892614610312578063e8a59cd8146103f8578063e95797d0146104ed578063f92c5a42146105cd575b600080fd5b3480156100d657600080fd5b506100df6105e4565b005b3480156100ed57600080fd5b506100f6610630565b005b34801561010457600080fd5b5061010d61067c565b005b34801561011b57600080fd5b50610124610703565b604051808215151515815260200191505060405180910390f35b34801561014a57600080fd5b50610153610869565b005b34801561016157600080fd5b506101a46004803603602081101561017857600080fd5b81019080803573ffffffffffffffffffffffffffffffffffffffff1690602001909291905050506108a7565b604051808215151515815260200191505060405180910390f35b3480156101ca57600080fd5b506101d36108c7565b604051808273ffffffffffffffffffffffffffffffffffffffff1673ffffffffffffffffffffffffffffffffffffffff16815260200191505060405180910390f35b34801561022157600080fd5b5061022a6108ec565b005b34801561023857600080fd5b506103106004803603608081101561024f57600080fd5b810190808035906020019064010000000081111561026c57600080fd5b82018360208201111561027e57600080fd5b803590602001918460018302840111640100000000831117156102a057600080fd5b91908080601f016020809104026020016040519081016040528093929190818152602001838380828437600081840152601f19601f8201169050808301925050505050505091929192908035906020019092919080359060200190929190803590602001909291905050506108fc565b005b34801561031e57600080fd5b506103e26004803603604081101561033557600080fd5b81019080803590602001909291908035906020019064010000000081111561035c57600080fd5b82018360208201111561036e57600080fd5b8035906020019184600183028401116401000000008311171561039057600080fd5b91908080601f016020809104026020016040519081016040528093929190818152602001838380828437600081840152601f19601f820116905080830192505050505050509192919290505050610b89565b6040518082815260200191505060405180910390f35b34801561040457600080fd5b506104316004803603602081101561041b57600080fd5b8101908080359060200190929190505050610bbd565b604051808573ffffffffffffffffffffffffffffffffffffffff1673ffffffffffffffffffffffffffffffffffffffff16815260200180602001848152602001838152602001828103825285818151815260200191508051906020019080838360005b838110156104af578082015181840152602081019050610494565b50505050905090810190601f1680156104dc5780820380516001836020036101000a031916815260200191505b509550505050505060405180910390f35b3480156104f957600080fd5b506105b36004803603602081101561051057600080fd5b810190808035906020019064010000000081111561052d57600080fd5b82018360208201111561053f57600080fd5b8035906020019184600183028401116401000000008311171561056157600080fd5b91908080601f016020809104026020016040519081016040528093929190818152602001838380828437600081840152601f19601f820116905080830192505050505050509192919290505050610ca5565b604051808215151515815260200191505060405180910390f35b3480156105d957600080fd5b506105e2610e93565b005b338073ffffffffffffffffffffffffffffffffffffffff163373ffffffffffffffffffffffffffffffffffffffff1614151561061f57600080fd5b600060149054906101000a90505050565b338073ffffffffffffffffffffffffffffffffffffffff163373ffffffffffffffffffffffffffffffffffffffff1614151561066b57600080fd5b600060149054906101000a90505050565b6000809054906101000a900473ffffffffffffffffffffffffffffffffffffffff1673ffffffffffffffffffffffffffffffffffffffff163373ffffffffffffffffffffffffffffffffffffffff161415156106d757600080fd5b600060149054906101000a900460ff1615600060146101000a81548160ff021916908315150217905550565b600060018060003373ffffffffffffffffffffffffffffffffffffffff1673ffffffffffffffffffffffffffffffffffffffff16815260200190815260200160002060006101000a81548160ff0219169083151502179055507f6516fef0bd1c9a6719ce74e3b93aaee88d5dc4c32ad018a3016a441d68bb729033600160003373ffffffffffffffffffffffffffffffffffffffff1673ffffffffffffffffffffffffffffffffffffffff16815260200190815260200160002060009054906101000a900460ff16604051808373ffffffffffffffffffffffffffffffffffffffff1673ffffffffffffffffffffffffffffffffffffffff168152602001821515151581526020019250505060405180910390a1600160003373ffffffffffffffffffffffffffffffffffffffff1673ffffffffffffffffffffffffffffffffffffffff16815260200190815260200160002060009054906101000a900460ff16905090565b338073ffffffffffffffffffffffffffffffffffffffff163373ffffffffffffffffffffffffffffffffffffffff161415156108a457600080fd5b50565b60016020528060005260406000206000915054906101000a900460ff1681565b6000809054906101000a900473ffffffffffffffffffffffffffffffffffffffff1681565b600060149054906101000a905050565b338073ffffffffffffffffffffffffffffffffffffffff163373ffffffffffffffffffffffffffffffffffffffff1614151561093757600080fd5b600060149054906101000a900460ff161515610b8257610970600260006003548152602001908152602001600020600301546001610ea3565b6002600060035481526020019081526020016000206003018190555084600260006003548152602001908152602001600020600401600060026000600354815260200190815260200160002060030154815260200190815260200160002060000190805190602001906109e4929190610ec4565b508360026000600354815260200190815260200160002060040160006002600060035481526020019081526020016000206003015481526020019081526020016000206001018190555082600260006003548152602001908152602001600020600401600060026000600354815260200190815260200160002060030154815260200190815260200160002060020181905550816002600060035481526020019081526020016000206004016000600260006003548152602001908152602001600020600301548152602001908152602001600020600301819055507fcb690fedd4eb25c4f68a52e6ce9e79774855f45f30dc5de66dd63a57ce1835a3858585856001604051808060200186815260200185815260200184815260200183151515158152602001828103825287818151815260200191508051906020019080838360005b83811015610b43578082015181840152602081019050610b28565b50505050905090810190601f168015610b705780820380516001836020036101000a031916815260200191505b50965050505050505060405180910390a15b5050505050565b60008060149054906101000a900460ff161515610bb757600260006003548152602001908152602001600020505b92915050565b60026020528060005260406000206000915090508060000160009054906101000a900473ffffffffffffffffffffffffffffffffffffffff1690806001018054600181600116156101000203166002900480601f016020809104026020016040519081016040528092919081815260200182805460018160011615610100020316600290048015610c8f5780601f10610c6457610100808354040283529160200191610c8f565b820191906000526020600020905b815481529060010190602001808311610c7257829003601f168201915b5050505050908060020154908060030154905084565b60008060149054906101000a900460ff161515610e8e577fb1baa39a147f604adc46ce5920281716dbcd5f168a49f654a1db2445e0335ffa33836003546001604051808573ffffffffffffffffffffffffffffffffffffffff1673ffffffffffffffffffffffffffffffffffffffff1681526020018060200184815260200183151515158152602001828103825285818151815260200191508051906020019080838360005b83811015610d66578082015181840152602081019050610d4b565b50505050905090810190601f168015610d935780820380516001836020036101000a031916815260200191505b509550505050505060405180910390a16080604051908101604052803373ffffffffffffffffffffffffffffffffffffffff16815260200183815260200160008152602001600081525060026000600354815260200190815260200160002060008201518160000160006101000a81548173ffffffffffffffffffffffffffffffffffffffff021916908373ffffffffffffffffffffffffffffffffffffffff1602179055506020820151816001019080519060200190610e55929190610f44565b506040820151816002015560608201518160030155905050610e7a6003546001610ea3565b600381905550610e88610703565b50600190505b919050565b600060149054906101000a905050565b6000808284019050838110151515610eba57600080fd5b8091505092915050565b828054600181600116156101000203166002900490600052602060002090601f016020900481019282601f10610f0557805160ff1916838001178555610f33565b82800160010185558215610f33579182015b82811115610f32578251825591602001919060010190610f17565b5b509050610f409190610fc4565b5090565b828054600181600116156101000203166002900490600052602060002090601f016020900481019282601f10610f8557805160ff1916838001178555610fb3565b82800160010185558215610fb3579182015b82811115610fb2578251825591602001919060010190610f97565b5b509050610fc09190610fc4565b5090565b610fe691905b80821115610fe2576000816000905550600101610fca565b5090565b9056fea165627a7a72305820205ebbd61594b0d9d436081a87f4ff3aab4b527c5919d43f2f0a5fdb83899a150029",
  "source": "pragma solidity ^0.5.0;\n\n// Import SafeMath library for more secure mathematic functions\nimport 'openzeppelin-solidity/contracts/math/SafeMath.sol';\n\n/** @title Marketplace */\ncontract Marketplace {\n\n\t// Declare Cotract Owner\n\taddress public owner;\n\n\t// Set Default Circuit Breaker Status\n\tbool private stopped = false;\n\n\t// Modifier to only allow calls from Contract Owner\n\tmodifier isAdmin() {\n\t\trequire(msg.sender == owner);\n\t\t_;\n\t}\n\n\t// Allows contract owner to pause contract\n\tfunction toggleContractActive() isAdmin public {\n\t\tstopped = !stopped;\n\t}\n\t// Future Task: Add decentralised circuit breaker mechanism e.g. by user vote\n\n\t/*\n\t Modifier to pause certain functionality in case of emergy \n\n\t Currently used in following functions: \n\t newStore,\n\t addAdmin,\n\t removeAdmin,\n\t listProduct,\n\t updateStock,\n\t removeProduct,\n\t storePurchase,\n\t storeWithdraw\n\t*/\n\tmodifier stopInEmergency { if (!stopped) _; }\n\n\n\t// Set hasStore mapping to allow contracts to see if an address has a store\n\tmapping (address => bool) public hasStore;\n\n\t/*\n\t\tAdd event logs for all store functions\n\t\tTODO: Add Tests\n\t*/\n\n\t// Event for store creation - logs address, ID, and Active State\n\tevent LogNewStore(\n\t\taddress ownerAddress,\n\t\tstring storeId,\n\t\tuint storeCount,\n\t\tbool activeStore\n\t);\n\n\tevent LogHasStore(\n\t\taddress userAddress,\n\t\tbool hasStore\n\t);\n\n\t// Event for store creation\n\tevent LogAddAdmin(\n\t\taddress accountAddress\n\t);\n\n\tevent LogRemoveAdmin(\n\t\taddress accountAddress\n\t);\n\n\t// Event for new products\n\tevent LogListProduct(\n\t\tstring productTitle,\n\t\tuint productPrice,\n\t\tuint productStock,\n\t\tuint sku,\n\t\tbool activeProduct\n\t);\n\n\tevent LogRemoveProduct(\n\t\tstring productTitle,\n\t\tuint productPrice,\n\t\tuint productStock,\n\t\tuint sku,\n\t\tbool activeProduct\n\t);\n\n\tevent LogUpdateStock(\n\t\tstring productTitle,\n\t\tuint productPrice,\n\t\tuint productStock,\n\t\tuint sku,\n\t\tbool activeProduct\n\t);\n\n\tevent LogStoreWithdraw(\n\t\taddress accountAddress,\n\t\tuint withdrawAmount,\n\t\tuint newStoreBalance\n\t);\n\n\tevent LogStorePurchase(\n\t\t\n\t);\n\n\t/*\n\t\tCreate structs for marketplace\n\t*/\n\n\t// Create Store struct containing relevant variables\n\tstruct Store {\n\t\taddress payable storeOwner;\n\t\tstring storeId;\n\t\tuint storeBalance;\n\t\tuint storeProductCount;\n\t\tmapping (uint => Product) storeProducts;\n\t}\n\n\t// Map Store structs to stores \n\tmapping(uint => Store) public stores;\n\n\t// Keep count of how many stores exist\n\tuint storeCount = 0;\n\n\t// Create Product struct containing relevant variables\n\tstruct Product {\n\t\tstring productTitle;\n\t\tuint productPrice;\n\t\tuint productStock;\n\t\tuint sku;\n\t}\n\n\t// Create User Role enum for use in user struct\n\tenum Role {\n\t\tUser,\n\t\tAdmin\n\t}\n\n\tstruct User {\n\t\tRole role;\n\t}\n\n\t/*\n\t\tCreate modifiers for marketplace functions\n\t*/\n\n\t// Verify store owners for store admin functions\n\tmodifier verifyStoreOwner (address _address) {require (msg.sender == _address); _;}\n\n\t/*\n\t\tAdd store funtions\n\t*/\n\n\t/** Function create new store */\n\tfunction newStore(string memory _storeId) stopInEmergency public returns (bool)\n\t{\n\t\temit LogNewStore(msg.sender, _storeId, storeCount, true );\n\t\tstores[storeCount] = Store({storeOwner: msg.sender, storeId: _storeId, storeBalance: 0, storeProductCount: 0});\n\t\t//stores[storeCount].storeAdmins[0] = msg.sender;\n\t\t// Use SafeMath Library from OpenZeppelin to update count\n\t\tstoreCount = SafeMath.add(storeCount, 1);\n\t\tsetHasStore();\n\t\treturn true;\n\t}\n\n\t/** @notice Enroll a customer with the bank\n\t/// @return True Boolean for hasStore\n\t/// Emit the LogHasStore event\n\t*/\n\tfunction setHasStore() public returns (bool){\n\t\thasStore[msg.sender] = true;\n\t\temit LogHasStore(msg.sender, hasStore[msg.sender]);\n\t\treturn hasStore[msg.sender];\n\t}\n\n\t/*  Function to create admin for store */\n\tfunction addAdmin()\n\t // Verify if store owner\n\t verifyStoreOwner(msg.sender)\n\t public {\n\n\t}\n\n\t/** Function to remove admin for store */\n\tfunction removeAdmin() stopInEmergency public {\n\t}\n\n\t/** Function to add product to store */\n\tfunction listProduct(string memory productTitle, uint productPrice, uint productStock, uint sku)\n\t// Verify store owner for access control\n\tverifyStoreOwner(msg.sender)\n\t// Implement circuit breaker\n\tstopInEmergency()\n\tpublic {\n\t\t// Product Listing Details\n\t\tstores[storeCount].storeProductCount = SafeMath.add(stores[storeCount].storeProductCount, 1);\n\t\tstores[storeCount].storeProducts[stores[storeCount].storeProductCount].productTitle = productTitle;\n\t\tstores[storeCount].storeProducts[stores[storeCount].storeProductCount].productPrice = productPrice;\n\t\tstores[storeCount].storeProducts[stores[storeCount].storeProductCount].productStock = productStock;\n\t\tstores[storeCount].storeProducts[stores[storeCount].storeProductCount].sku = sku;\n\t\temit LogListProduct(productTitle, productPrice, productStock, sku, true);\n\t}\n\n\t/** Function to remove product from store */\n\tfunction removeProduct()\n\tverifyStoreOwner(msg.sender)\n\tstopInEmergency()\n\tpublic {\n\n\t}\n\n\t/** Function to update product stock levels */\n\tfunction updateStock()\n\tverifyStoreOwner(msg.sender)\n\tstopInEmergency()\n\tpublic {\n\t}\n\n\t/** Function to withdraw balance from store contract */\n\tfunction storeWithdraw(uint withdrawAmount, string memory storeId)\n\tstopInEmergency() \n\tpublic \n\treturns (uint) {\n\t\tif (withdrawAmount <= stores[storeCount].storeBalance) {\n\t\t\t/*//storeId.storeBalance = SafeMath.sub(withdrawAmount, storeId.storeBalance);\n\t\t\t// Set value for testsing\n\t\t\tstoreId.storeBalance = 0;\n\t\t\temit LogStoreWithdraw(msg.sender, withdrawAmount, storeId.storeBalance);*/\n\t\t}\n\t}\n\n\t/** Function to purchase product */\n\tfunction storePurchase() \n\tstopInEmergency() \n\tpublic {\n\t}\n\n}",
  "sourcePath": "/Users/daniel/Documents/Development/eclm/final-project-danielmcclure/contracts/Marketplace.sol",
  "compiler": {
    "name": "solc",
    "version": "0.5.0+commit.1d4f565a.Emscripten.clang"
  },
  "schemaVersion": "3.0.1",
  "updatedAt": "2019-01-28T12:01:38.487Z",
  "devdoc": {
    "methods": {
      "setHasStore()": {
        "return": "True Boolean for hasStore /// Emit the LogHasStore event"
      }
    },
    "title": "Marketplace "
  },
  "userdoc": {
    "methods": {
      "listProduct(string,uint256,uint256,uint256)": {
        "notice": "Function to add product to store "
      },
      "newStore(string)": {
        "notice": "Function create new store "
      },
      "removeAdmin()": {
        "notice": "Function to remove admin for store "
      },
      "removeProduct()": {
        "notice": "Function to remove product from store "
      },
      "setHasStore()": {
        "notice": "Enroll a customer with the bank"
      },
      "storePurchase()": {
        "notice": "Function to purchase product "
      },
      "storeWithdraw(uint256,string)": {
        "notice": "Function to withdraw balance from store contract "
      },
      "updateStock()": {
        "notice": "Function to update product stock levels "
      }
    }
  }
}